:04035800021904D2B0
:100329007516037512011201C175180175120112B2
:1003390002ED1201C17518017512011202ED1201C7
:0F034900C17518017512011202ED1201C180FE7B
:01035D00227D
:040003008F1B8D1CA6
:10000700752100752200752319AE19AF1A7C037D7F
:10001700E812014D7C007D0A12014D8D20AE19AF0B
:100027001A7C007D6412014D7C007D0A12014D8D02
:100037001FAE19AF1A7C007D0A12014D7C007D0AA4
:1000470012014D8D1EAE19AF1A7C007D0A12014DAB
:100057008D1DE51B24FE602014603C14606724039B
:100067006003020106AF1C7E007C037DE812013BA2
:10007700AC06AD07E51F8011AF207E007C037DE84D
:1000870012013BAC06AD07E51C75F064A42DFDEC31
:1000970035F0FCE51E801DAF207E007C037DE81255
:1000A700013BAC06AD07E51F75F064A42DFDEC35EB
:1000B700F0FCE51C75F00AA42DFFE5F03CFE7C0082
:1000C700EF251D802CAF207E007C037DE812013BCD
:1000D700AC06AD07E51F75F064A42DFDEC35F0FC0B
:1000E700E51E75F00AA42DFFE5F03CFE7C00EF2528
:0F00F7001CFFEC3EAB21AA22A9238FF01201A21D
:0101060022D6
:1001C100E50964017009FDAF16120003E4F509E5C4
:1001D1000A6401700A7D01AF16120003E4F50AE515
:1001E1000B6401700A7D02AF16120003E4F50BE502
:1001F1000C6401700A7D03AF16120003E4F50CE5EF
:100201000D6401700A7D04AF16120003E4F50DE5DB
:100211000E6401700A7D05AF16120003E4F50EE5C8
:100221000F6401700A7D06AF16120003E4F50FE5B5
:10023100106401700A7D07AF16120003E4F510E5A2
:10024100116401700A7D08AF16120003E4F511E58F
:10025100126401700A7D09AF16120003E4F512223F
:1002ED007B007A007916E51864017015E516640136
:1002FD0070077404120129800574FF120107E4F5DB
:10030D0018E51764017014E51664047006041201F3
:0B031D002980057401120107E4F517A8
:0103280022B2
:0300000002026198
:0C026100787FE4F6D8FD7581230202A826
:10010700BB010989828A83F8E028F022500327F788
:1001170022BBFE05F8E328F3228A838982F8E49359
:0201270028228C
:10012900BB010689828A83F0225002F722BBFE01B5
:02013900F322AF
:10013B00EF8DF0A4A8F0CF8CF0A428CE8DF0A42ED8
:02014B00FE2292
:10014D00BC000BBE0029EF8DF084FFADF022E4CC96
:10015D00F875F008EF2FFFEE33FEEC33FCEE9DEC5F
:10016D00984005FCEE9DFE0FD5F0E9E4CEFD22EDA5
:10017D00F8F5F0EE8420D21CFEADF075F008EF2FEF
:10018D00FFED33FD4007985006D5F0F222C398FDE0
:05019D000FD5F0EA227D
:1001A200BB010A89828A83F0E5F0A3F0225006F7A8
:0F01B20009A7F01922BBFE06F3E5F009F31922A5
:10026D00020329E493A3F8E493A34003F68001F27B
:10027D0008DFF48029E493A3F85407240CC8C33392
:10028D00C4540F4420C8834004F456800146F6DF61
:10029D00E4800B0102040810204080900358E47E96
:1002AD00019360BCA3FF543F30E509541FFEE49356
:1002BD00A360010ECF54C025E060A840B8E493A31D
:1002CD00FAE493A3F8E493A3C8C582C8CAC583CA48
:1002DD00F0A3C8C582C8CAC583CADFE9DEE780BE00
:01035C0000A0
:00000001FF
